{
	"contracts/3WETH9.sol": {
		"Delegate": {
			"abi": [
				{
					"constant": true,
					"inputs": [],
					"name": "n",
					"outputs": [
						{
							"name": "",
							"type": "uint256"
						}
					],
					"payable": false,
					"stateMutability": "view",
					"type": "function"
				},
				{
					"constant": false,
					"inputs": [],
					"name": "adds",
					"outputs": [],
					"payable": false,
					"stateMutability": "nonpayable",
					"type": "function"
				}
			],
			"devdoc": {
				"methods": {}
			},
			"evm": {
				"assembly": "    /* \"contracts/3WETH9.sol\":709:870  contract Delegate {... */\n  mstore(0x40, 0x60)\n    /* \"contracts/3WETH9.sol\":815:816  1 */\n  0x1\n    /* \"contracts/3WETH9.sol\":799:816  uint public n = 1 */\n  0x0\n  sstore\n    /* \"contracts/3WETH9.sol\":709:870  contract Delegate {... */\n  jumpi(tag_1, iszero(callvalue))\n  0x0\n  dup1\n  revert\ntag_1:\n  dataSize(sub_0)\n  dup1\n  dataOffset(sub_0)\n  0x0\n  codecopy\n  0x0\n  return\nstop\n\nsub_0: assembly {\n        /* \"contracts/3WETH9.sol\":709:870  contract Delegate {... */\n      mstore(0x40, 0x60)\n      jumpi(tag_1, lt(calldatasize, 0x4))\n      calldataload(0x0)\n      0x100000000000000000000000000000000000000000000000000000000\n      swap1\n      div\n      0xffffffff\n      and\n      dup1\n      0x2e52d606\n      eq\n      tag_2\n      jumpi\n      dup1\n      0xeba86558\n      eq\n      tag_3\n      jumpi\n    tag_1:\n      0x0\n      dup1\n      revert\n        /* \"contracts/3WETH9.sol\":799:816  uint public n = 1 */\n    tag_2:\n      jumpi(tag_4, iszero(callvalue))\n      0x0\n      dup1\n      revert\n    tag_4:\n      tag_5\n      jump(tag_6)\n    tag_5:\n      mload(0x40)\n      dup1\n      dup3\n      dup2\n      mstore\n      0x20\n      add\n      swap2\n      pop\n      pop\n      mload(0x40)\n      dup1\n      swap2\n      sub\n      swap1\n      return\n        /* \"contracts/3WETH9.sol\":823:868  function adds() public {... */\n    tag_3:\n      jumpi(tag_7, iszero(callvalue))\n      0x0\n      dup1\n      revert\n    tag_7:\n      tag_8\n      jump(tag_9)\n    tag_8:\n      stop\n        /* \"contracts/3WETH9.sol\":799:816  uint public n = 1 */\n    tag_6:\n      sload(0x0)\n      dup2\n      jump\t// out\n        /* \"contracts/3WETH9.sol\":823:868  function adds() public {... */\n    tag_9:\n        /* \"contracts/3WETH9.sol\":860:861  5 */\n      0x5\n        /* \"contracts/3WETH9.sol\":856:857  n */\n      0x0\n        /* \"contracts/3WETH9.sol\":856:861  n = 5 */\n      dup2\n      swap1\n      sstore\n      pop\n        /* \"contracts/3WETH9.sol\":823:868  function adds() public {... */\n      jump\t// out\n\n    auxdata: 0xa165627a7a72305820248cd2ccefd393d92ebac8799d5f46b7f9ec3a4e58fb6af00c9b2d91696feb780029\n}\n",
				"bytecode": {
					"linkReferences": {},
					"object": "60606040526001600055341561001457600080fd5b60c2806100226000396000f3006060604052600436106049576000357c0100000000000000000000000000000000000000000000000000000000900463ffffffff1680632e52d60614604e578063eba86558146074575b600080fd5b3415605857600080fd5b605e6086565b6040518082815260200191505060405180910390f35b3415607e57600080fd5b6084608c565b005b60005481565b60056000819055505600a165627a7a72305820248cd2ccefd393d92ebac8799d5f46b7f9ec3a4e58fb6af00c9b2d91696feb780029",
					"opcodes": "PUSH1 0x60 PUSH1 0x40 MSTORE PUSH1 0x1 PUSH1 0x0 SSTORE CALLVALUE ISZERO PUSH2 0x14 JUMPI PUSH1 0x0 DUP1 REVERT JUMPDEST PUSH1 0xC2 DUP1 PUSH2 0x22 PUSH1 0x0 CODECOPY PUSH1 0x0 RETURN STOP PUSH1 0x60 PUSH1 0x40 MSTORE PUSH1 0x4 CALLDATASIZE LT PUSH1 0x49 JUMPI PUSH1 0x0 CALLDATALOAD PUSH29 0x100000000000000000000000000000000000000000000000000000000 SWAP1 DIV PUSH4 0xFFFFFFFF AND DUP1 PUSH4 0x2E52D606 EQ PUSH1 0x4E JUMPI DUP1 PUSH4 0xEBA86558 EQ PUSH1 0x74 JUMPI JUMPDEST PUSH1 0x0 DUP1 REVERT JUMPDEST CALLVALUE ISZERO PUSH1 0x58 JUMPI PUSH1 0x0 DUP1 REVERT JUMPDEST PUSH1 0x5E PUSH1 0x86 JUMP JUMPDEST PUSH1 0x40 MLOAD DUP1 DUP3 DUP2 MSTORE PUSH1 0x20 ADD SWAP2 POP POP PUSH1 0x40 MLOAD DUP1 SWAP2 SUB SWAP1 RETURN JUMPDEST CALLVALUE ISZERO PUSH1 0x7E JUMPI PUSH1 0x0 DUP1 REVERT JUMPDEST PUSH1 0x84 PUSH1 0x8C JUMP JUMPDEST STOP JUMPDEST PUSH1 0x0 SLOAD DUP2 JUMP JUMPDEST PUSH1 0x5 PUSH1 0x0 DUP2 SWAP1 SSTORE POP JUMP STOP LOG1 PUSH6 0x627A7A723058 KECCAK256 0x24 DUP13 0xd2 0xcc 0xef 0xd3 SWAP4 0xd9 0x2e 0xba 0xc8 PUSH26 0x9D5F46B7F9EC3A4E58FB6AF00C9B2D91696FEB78002900000000 "
				},
				"gasEstimates": {
					"creation": {
						"codeDepositCost": "38800",
						"executionCost": "20094",
						"totalCost": "58894"
					},
					"external": {
						"adds()": "20164",
						"n()": "386"
					}
				},
				"methodIdentifiers": {
					"adds()": "eba86558",
					"n()": "2e52d606"
				}
			},
			"userdoc": {
				"methods": {}
			}
		}
	}
}