{
	"contracts/3WETH9.sol": {
		"Proxy": {
			"abi": [
				{
					"constant": true,
					"inputs": [],
					"name": "Address",
					"outputs": [
						{
							"name": "",
							"type": "uint256"
						}
					],
					"payable": false,
					"stateMutability": "view",
					"type": "function"
				},
				{
					"constant": true,
					"inputs": [],
					"name": "delegate",
					"outputs": [
						{
							"name": "",
							"type": "address"
						}
					],
					"payable": false,
					"stateMutability": "view",
					"type": "function"
				},
				{
					"inputs": [
						{
							"name": "_delegateAdr",
							"type": "address"
						}
					],
					"payable": false,
					"stateMutability": "nonpayable",
					"type": "constructor"
				},
				{
					"payable": true,
					"stateMutability": "payable",
					"type": "fallback"
				}
			],
			"devdoc": {
				"methods": {}
			},
			"evm": {
				"assembly": "    /* \"contracts/3WETH9.sol\":63:711  contract Proxy {... */\n  mstore(0x40, 0x60)\n    /* \"contracts/3WETH9.sol\":242:244  11 */\n  0xb\n    /* \"contracts/3WETH9.sol\":220:244  uint public Address = 11 */\n  0x1\n  sstore\n    /* \"contracts/3WETH9.sol\":251:335  function Proxy(address _delegateAdr) public {... */\n  jumpi(tag_1, iszero(callvalue))\n  0x0\n  dup1\n  revert\ntag_1:\n  mload(0x40)\n  0x20\n  dup1\n  bytecodeSize\n  dup4\n  codecopy\n  dup2\n  add\n  0x40\n  mstore\n  dup1\n  dup1\n  mload\n  swap1\n  0x20\n  add\n  swap1\n  swap2\n  swap1\n  pop\n  pop\n    /* \"contracts/3WETH9.sol\":316:328  _delegateAdr */\n  dup1\n    /* \"contracts/3WETH9.sol\":305:313  delegate */\n  0x0\n  dup1\n    /* \"contracts/3WETH9.sol\":305:328  delegate = _delegateAdr */\n  0x100\n  exp\n  dup2\n  sload\n  dup2\n  0xffffffffffffffffffffffffffffffffffffffff\n  mul\n  not\n  and\n  swap1\n  dup4\n  0xffffffffffffffffffffffffffffffffffffffff\n  and\n  mul\n  or\n  swap1\n  sstore\n  pop\n    /* \"contracts/3WETH9.sol\":251:335  function Proxy(address _delegateAdr) public {... */\n  pop\n    /* \"contracts/3WETH9.sol\":63:711  contract Proxy {... */\n  dataSize(sub_0)\n  dup1\n  dataOffset(sub_0)\n  0x0\n  codecopy\n  0x0\n  return\nstop\n\nsub_0: assembly {\n        /* \"contracts/3WETH9.sol\":63:711  contract Proxy {... */\n      mstore(0x40, 0x60)\n      jumpi(tag_1, lt(calldatasize, 0x4))\n      calldataload(0x0)\n      0x100000000000000000000000000000000000000000000000000000000\n      swap1\n      div\n      0xffffffff\n      and\n      dup1\n      0x3aeaccf5\n      eq\n      tag_2\n      jumpi\n      dup1\n      0xc89e4361\n      eq\n      tag_3\n      jumpi\n    tag_1:\n        /* \"contracts/3WETH9.sol\":424:425  0 */\n      0x0\n        /* \"contracts/3WETH9.sol\":418:426  sload(0) */\n      sload\n        /* \"contracts/3WETH9.sol\":462:474  calldatasize */\n      calldatasize\n        /* \"contracts/3WETH9.sol\":457:460  0x0 */\n      0x0\n        /* \"contracts/3WETH9.sol\":452:455  0x0 */\n      dup1\n        /* \"contracts/3WETH9.sol\":439:475  calldatacopy(0x0, 0x0, calldatasize) */\n      calldatacopy\n        /* \"contracts/3WETH9.sol\":553:554  0 */\n      0x0\n        /* \"contracts/3WETH9.sol\":548:551  0x0 */\n      dup1\n        /* \"contracts/3WETH9.sol\":534:546  calldatasize */\n      calldatasize\n        /* \"contracts/3WETH9.sol\":529:532  0x0 */\n      0x0\n        /* \"contracts/3WETH9.sol\":520:527  _target */\n      dup5\n        /* \"contracts/3WETH9.sol\":515:518  gas */\n      gas\n        /* \"contracts/3WETH9.sol\":502:555  delegatecall(gas, _target, 0x0, calldatasize, 0x0, 0) */\n      delegatecall\n        /* \"contracts/3WETH9.sol\":593:607  returndatasize */\n      returndatasize\n        /* \"contracts/3WETH9.sol\":588:591  0x0 */\n      0x0\n        /* \"contracts/3WETH9.sol\":583:586  0x0 */\n      dup1\n        /* \"contracts/3WETH9.sol\":568:608  returndatacopy(0x0, 0x0, returndatasize) */\n      returndatacopy\n        /* \"contracts/3WETH9.sol\":628:634  result */\n      dup1\n        /* \"contracts/3WETH9.sol\":640:641  0 */\n      0x0\n        /* \"contracts/3WETH9.sol\":635:656  case 0 {revert(0, 0)} */\n      dup2\n      eq\n      tag_7\n      jumpi\n        /* \"contracts/3WETH9.sol\":677:691  returndatasize */\n      returndatasize\n        /* \"contracts/3WETH9.sol\":674:675  0 */\n      0x0\n        /* \"contracts/3WETH9.sol\":666:692  return (0, returndatasize) */\n      return\n        /* \"contracts/3WETH9.sol\":635:656  case 0 {revert(0, 0)} */\n    tag_7:\n        /* \"contracts/3WETH9.sol\":653:654  0 */\n      0x0\n        /* \"contracts/3WETH9.sol\":650:651  0 */\n      dup1\n        /* \"contracts/3WETH9.sol\":643:655  revert(0, 0) */\n      revert\n        /* \"contracts/3WETH9.sol\":220:244  uint public Address = 11 */\n    tag_2:\n      jumpi(tag_8, iszero(callvalue))\n      0x0\n      dup1\n      revert\n    tag_8:\n      tag_9\n      jump(tag_10)\n    tag_9:\n      mload(0x40)\n      dup1\n      dup3\n      dup2\n      mstore\n      0x20\n      add\n      swap2\n      pop\n      pop\n      mload(0x40)\n      dup1\n      swap2\n      sub\n      swap1\n      return\n        /* \"contracts/3WETH9.sol\":191:214  address public delegate */\n    tag_3:\n      jumpi(tag_11, iszero(callvalue))\n      0x0\n      dup1\n      revert\n    tag_11:\n      tag_12\n      jump(tag_13)\n    tag_12:\n      mload(0x40)\n      dup1\n      dup3\n      0xffffffffffffffffffffffffffffffffffffffff\n      and\n      0xffffffffffffffffffffffffffffffffffffffff\n      and\n      dup2\n      mstore\n      0x20\n      add\n      swap2\n      pop\n      pop\n      mload(0x40)\n      dup1\n      swap2\n      sub\n      swap1\n      return\n        /* \"contracts/3WETH9.sol\":220:244  uint public Address = 11 */\n    tag_10:\n      sload(0x1)\n      dup2\n      jump\t// out\n        /* \"contracts/3WETH9.sol\":191:214  address public delegate */\n    tag_13:\n      0x0\n      dup1\n      swap1\n      sload\n      swap1\n      0x100\n      exp\n      swap1\n      div\n      0xffffffffffffffffffffffffffffffffffffffff\n      and\n      dup2\n      jump\t// out\n\n    auxdata: 0xa165627a7a72305820cf74020c4eb2a6863ed3b93d0c69c18330a8d436403263de65e7c4b7d79fde060029\n}\n",
				"bytecode": {
					"linkReferences": {},
					"object": "6060604052600b600155341561001457600080fd5b6040516020806101ca83398101604052808051906020019091905050806000806101000a81548173ffffffffffffffffffffffffffffffffffffffff021916908373ffffffffffffffffffffffffffffffffffffffff1602179055505061014a806100806000396000f30060606040526004361061004c576000357c0100000000000000000000000000000000000000000000000000000000900463ffffffff1680633aeaccf514610075578063c89e43611461009e575b6000543660008037600080366000845af43d6000803e8060008114610070573d6000f35b600080fd5b341561008057600080fd5b6100886100f3565b6040518082815260200191505060405180910390f35b34156100a957600080fd5b6100b16100f9565b604051808273ffffffffffffffffffffffffffffffffffffffff1673ffffffffffffffffffffffffffffffffffffffff16815260200191505060405180910390f35b60015481565b6000809054906101000a900473ffffffffffffffffffffffffffffffffffffffff16815600a165627a7a72305820cf74020c4eb2a6863ed3b93d0c69c18330a8d436403263de65e7c4b7d79fde060029",
					"opcodes": "PUSH1 0x60 PUSH1 0x40 MSTORE PUSH1 0xB PUSH1 0x1 SSTORE CALLVALUE ISZERO PUSH2 0x14 JUMPI PUSH1 0x0 DUP1 REVERT JUMPDEST PUSH1 0x40 MLOAD PUSH1 0x20 DUP1 PUSH2 0x1CA DUP4 CODECOPY DUP2 ADD PUSH1 0x40 MSTORE DUP1 DUP1 MLOAD SWAP1 PUSH1 0x20 ADD SWAP1 SWAP2 SWAP1 POP POP DUP1 PUSH1 0x0 DUP1 PUSH2 0x100 EXP DUP2 SLOAD DUP2 PUSH20 0xFFFFFFFFFFFFFFFFFFFFFFFFFFFFFFFFFFFFFFFF MUL NOT AND SWAP1 DUP4 PUSH20 0xFFFFFFFFFFFFFFFFFFFFFFFFFFFFFFFFFFFFFFFF AND MUL OR SWAP1 SSTORE POP POP PUSH2 0x14A DUP1 PUSH2 0x80 PUSH1 0x0 CODECOPY PUSH1 0x0 RETURN STOP PUSH1 0x60 PUSH1 0x40 MSTORE PUSH1 0x4 CALLDATASIZE LT PUSH2 0x4C JUMPI PUSH1 0x0 CALLDATALOAD PUSH29 0x100000000000000000000000000000000000000000000000000000000 SWAP1 DIV PUSH4 0xFFFFFFFF AND DUP1 PUSH4 0x3AEACCF5 EQ PUSH2 0x75 JUMPI DUP1 PUSH4 0xC89E4361 EQ PUSH2 0x9E JUMPI JUMPDEST PUSH1 0x0 SLOAD CALLDATASIZE PUSH1 0x0 DUP1 CALLDATACOPY PUSH1 0x0 DUP1 CALLDATASIZE PUSH1 0x0 DUP5 GAS DELEGATECALL RETURNDATASIZE PUSH1 0x0 DUP1 RETURNDATACOPY DUP1 PUSH1 0x0 DUP2 EQ PUSH2 0x70 JUMPI RETURNDATASIZE PUSH1 0x0 RETURN JUMPDEST PUSH1 0x0 DUP1 REVERT JUMPDEST CALLVALUE ISZERO PUSH2 0x80 JUMPI PUSH1 0x0 DUP1 REVERT JUMPDEST PUSH2 0x88 PUSH2 0xF3 JUMP JUMPDEST PUSH1 0x40 MLOAD DUP1 DUP3 DUP2 MSTORE PUSH1 0x20 ADD SWAP2 POP POP PUSH1 0x40 MLOAD DUP1 SWAP2 SUB SWAP1 RETURN JUMPDEST CALLVALUE ISZERO PUSH2 0xA9 JUMPI PUSH1 0x0 DUP1 REVERT JUMPDEST PUSH2 0xB1 PUSH2 0xF9 JUMP JUMPDEST PUSH1 0x40 MLOAD DUP1 DUP3 PUSH20 0xFFFFFFFFFFFFFFFFFFFFFFFFFFFFFFFFFFFFFFFF AND PUSH20 0xFFFFFFFFFFFFFFFFFFFFFFFFFFFFFFFFFFFFFFFF AND DUP2 MSTORE PUSH1 0x20 ADD SWAP2 POP POP PUSH1 0x40 MLOAD DUP1 SWAP2 SUB SWAP1 RETURN JUMPDEST PUSH1 0x1 SLOAD DUP2 JUMP JUMPDEST PUSH1 0x0 DUP1 SWAP1 SLOAD SWAP1 PUSH2 0x100 EXP SWAP1 DIV PUSH20 0xFFFFFFFFFFFFFFFFFFFFFFFFFFFFFFFFFFFFFFFF AND DUP2 JUMP STOP LOG1 PUSH6 0x627A7A723058 KECCAK256 0xcf PUSH21 0x20C4EB2A6863ED3B93D0C69C18330A8D436403263 0xde PUSH6 0xE7C4B7D79FDE MOD STOP 0x29 "
				},
				"gasEstimates": {
					"creation": {
						"codeDepositCost": "66000",
						"executionCost": "40454",
						"totalCost": "106454"
					},
					"external": {
						"": "infinite",
						"Address()": "infinite",
						"delegate()": "infinite"
					}
				},
				"methodIdentifiers": {
					"Address()": "3aeaccf5",
					"delegate()": "c89e4361"
				}
			},
			"userdoc": {
				"methods": {}
			}
		}
	}
}