{
	"contracts/3WETH9.sol": {
		"Caller": {
			"abi": [
				{
					"constant": false,
					"inputs": [],
					"name": "go",
					"outputs": [],
					"payable": false,
					"stateMutability": "nonpayable",
					"type": "function"
				},
				{
					"inputs": [],
					"payable": false,
					"stateMutability": "nonpayable",
					"type": "constructor"
				}
			],
			"devdoc": {
				"methods": {}
			},
			"evm": {
				"assembly": "    /* \"contracts/3WETH9.sol\":875:1078  contract Caller {... */\n  mstore(0x40, 0x60)\n    /* \"contracts/3WETH9.sol\":919:1021  function Caller() public {... */\n  jumpi(tag_1, iszero(callvalue))\n  0x0\n  dup1\n  revert\ntag_1:\n    /* \"contracts/3WETH9.sol\":971:1013  0xC02aaA39b223FE8D0A0e5C4F27eAD9083C756Cc2 */\n  0xc02aaa39b223fe8d0a0e5c4f27ead9083c756cc2\n    /* \"contracts/3WETH9.sol\":954:959  proxy */\n  0x0\n  dup1\n    /* \"contracts/3WETH9.sol\":954:1014  proxy = Delegate(0xC02aaA39b223FE8D0A0e5C4F27eAD9083C756Cc2) */\n  0x100\n  exp\n  dup2\n  sload\n  dup2\n  0xffffffffffffffffffffffffffffffffffffffff\n  mul\n  not\n  and\n  swap1\n  dup4\n  0xffffffffffffffffffffffffffffffffffffffff\n  and\n  mul\n  or\n  swap1\n  sstore\n  pop\n    /* \"contracts/3WETH9.sol\":875:1078  contract Caller {... */\n  dataSize(sub_0)\n  dup1\n  dataOffset(sub_0)\n  0x0\n  codecopy\n  0x0\n  return\nstop\n\nsub_0: assembly {\n        /* \"contracts/3WETH9.sol\":875:1078  contract Caller {... */\n      mstore(0x40, 0x60)\n      jumpi(tag_1, lt(calldatasize, 0x4))\n      calldataload(0x0)\n      0x100000000000000000000000000000000000000000000000000000000\n      swap1\n      div\n      0xffffffff\n      and\n      dup1\n      0xf59f83a\n      eq\n      tag_2\n      jumpi\n    tag_1:\n      0x0\n      dup1\n      revert\n        /* \"contracts/3WETH9.sol\":1027:1076  function go() public {... */\n    tag_2:\n      jumpi(tag_3, iszero(callvalue))\n      0x0\n      dup1\n      revert\n    tag_3:\n      tag_4\n      jump(tag_5)\n    tag_4:\n      stop\n    tag_5:\n        /* \"contracts/3WETH9.sol\":1057:1062  proxy */\n      0x0\n      dup1\n      swap1\n      sload\n      swap1\n      0x100\n      exp\n      swap1\n      div\n      0xffffffffffffffffffffffffffffffffffffffff\n      and\n        /* \"contracts/3WETH9.sol\":1057:1067  proxy.adds */\n      0xffffffffffffffffffffffffffffffffffffffff\n      and\n      0xeba86558\n        /* \"contracts/3WETH9.sol\":1057:1069  proxy.adds() */\n      mload(0x40)\n      dup2\n      0xffffffff\n      and\n      0x100000000000000000000000000000000000000000000000000000000\n      mul\n      dup2\n      mstore\n      0x4\n      add\n      0x0\n      mload(0x40)\n      dup1\n      dup4\n      sub\n      dup2\n      0x0\n      dup8\n      dup1\n      extcodesize\n      iszero\n      iszero\n      tag_7\n      jumpi\n      0x0\n      dup1\n      revert\n    tag_7:\n      gas\n      call\n      iszero\n      iszero\n      tag_8\n      jumpi\n      0x0\n      dup1\n      revert\n    tag_8:\n      pop\n      pop\n      pop\n        /* \"contracts/3WETH9.sol\":1027:1076  function go() public {... */\n      jump\t// out\n\n    auxdata: 0xa165627a7a72305820d9ee8b7af8d8906df7ea2d017604548c0484fe2bc31e4456a4ca8a6c36f590510029\n}\n",
				"bytecode": {
					"linkReferences": {},
					"object": "6060604052341561000f57600080fd5b73c02aaa39b223fe8d0a0e5c4f27ead9083c756cc26000806101000a81548173ffffffffffffffffffffffffffffffffffffffff021916908373ffffffffffffffffffffffffffffffffffffffff160217905550610116806100726000396000f300606060405260043610603f576000357c0100000000000000000000000000000000000000000000000000000000900463ffffffff1680630f59f83a146044575b600080fd5b3415604e57600080fd5b60546056565b005b6000809054906101000a900473ffffffffffffffffffffffffffffffffffffffff1673ffffffffffffffffffffffffffffffffffffffff1663eba865586040518163ffffffff167c0100000000000000000000000000000000000000000000000000000000028152600401600060405180830381600087803b151560d957600080fd5b5af1151560e557600080fd5b5050505600a165627a7a72305820d9ee8b7af8d8906df7ea2d017604548c0484fe2bc31e4456a4ca8a6c36f590510029",
					"opcodes": "PUSH1 0x60 PUSH1 0x40 MSTORE CALLVALUE ISZERO PUSH2 0xF JUMPI PUSH1 0x0 DUP1 REVERT JUMPDEST PUSH20 0xC02AAA39B223FE8D0A0E5C4F27EAD9083C756CC2 PUSH1 0x0 DUP1 PUSH2 0x100 EXP DUP2 SLOAD DUP2 PUSH20 0xFFFFFFFFFFFFFFFFFFFFFFFFFFFFFFFFFFFFFFFF MUL NOT AND SWAP1 DUP4 PUSH20 0xFFFFFFFFFFFFFFFFFFFFFFFFFFFFFFFFFFFFFFFF AND MUL OR SWAP1 SSTORE POP PUSH2 0x116 DUP1 PUSH2 0x72 PUSH1 0x0 CODECOPY PUSH1 0x0 RETURN STOP PUSH1 0x60 PUSH1 0x40 MSTORE PUSH1 0x4 CALLDATASIZE LT PUSH1 0x3F JUMPI PUSH1 0x0 CALLDATALOAD PUSH29 0x100000000000000000000000000000000000000000000000000000000 SWAP1 DIV PUSH4 0xFFFFFFFF AND DUP1 PUSH4 0xF59F83A EQ PUSH1 0x44 JUMPI JUMPDEST PUSH1 0x0 DUP1 REVERT JUMPDEST CALLVALUE ISZERO PUSH1 0x4E JUMPI PUSH1 0x0 DUP1 REVERT JUMPDEST PUSH1 0x54 PUSH1 0x56 JUMP JUMPDEST STOP JUMPDEST PUSH1 0x0 DUP1 SWAP1 SLOAD SWAP1 PUSH2 0x100 EXP SWAP1 DIV PUSH20 0xFFFFFFFFFFFFFFFFFFFFFFFFFFFFFFFFFFFFFFFF AND PUSH20 0xFFFFFFFFFFFFFFFFFFFFFFFFFFFFFFFFFFFFFFFF AND PUSH4 0xEBA86558 PUSH1 0x40 MLOAD DUP2 PUSH4 0xFFFFFFFF AND PUSH29 0x100000000000000000000000000000000000000000000000000000000 MUL DUP2 MSTORE PUSH1 0x4 ADD PUSH1 0x0 PUSH1 0x40 MLOAD DUP1 DUP4 SUB DUP2 PUSH1 0x0 DUP8 DUP1 EXTCODESIZE ISZERO ISZERO PUSH1 0xD9 JUMPI PUSH1 0x0 DUP1 REVERT JUMPDEST GAS CALL ISZERO ISZERO PUSH1 0xE5 JUMPI PUSH1 0x0 DUP1 REVERT JUMPDEST POP POP POP JUMP STOP LOG1 PUSH6 0x627A7A723058 KECCAK256 0xd9 0xee DUP12 PUSH27 0xF8D8906DF7EA2D017604548C0484FE2BC31E4456A4CA8A6C36F590 MLOAD STOP 0x29 "
				},
				"gasEstimates": {
					"creation": {
						"codeDepositCost": "55600",
						"executionCost": "20367",
						"totalCost": "75967"
					},
					"external": {
						"go()": "infinite"
					}
				},
				"methodIdentifiers": {
					"go()": "0f59f83a"
				}
			},
			"userdoc": {
				"methods": {}
			}
		}
	}
}