{
	"contracts/3WETH9.sol": {
		"Proxy": {
			"abi": [
				{
					"constant": true,
					"inputs": [],
					"name": "Address",
					"outputs": [
						{
							"name": "",
							"type": "uint256"
						}
					],
					"payable": false,
					"stateMutability": "view",
					"type": "function"
				},
				{
					"constant": true,
					"inputs": [],
					"name": "delegate",
					"outputs": [
						{
							"name": "",
							"type": "address"
						}
					],
					"payable": false,
					"stateMutability": "view",
					"type": "function"
				},
				{
					"inputs": [
						{
							"name": "_delegateAdr",
							"type": "address"
						}
					],
					"payable": false,
					"stateMutability": "nonpayable",
					"type": "constructor"
				},
				{
					"payable": true,
					"stateMutability": "payable",
					"type": "fallback"
				}
			],
			"devdoc": {
				"methods": {}
			},
			"evm": {
				"assembly": "    /* \"contracts/3WETH9.sol\":63:710  contract Proxy {... */\n  mstore(0x40, 0x60)\n    /* \"contracts/3WETH9.sol\":242:243  1 */\n  0x1\n    /* \"contracts/3WETH9.sol\":220:243  uint public Address = 1 */\n  dup1\n  sstore\n    /* \"contracts/3WETH9.sol\":250:334  function Proxy(address _delegateAdr) public {... */\n  jumpi(tag_1, iszero(callvalue))\n  0x0\n  dup1\n  revert\ntag_1:\n  mload(0x40)\n  0x20\n  dup1\n  bytecodeSize\n  dup4\n  codecopy\n  dup2\n  add\n  0x40\n  mstore\n  dup1\n  dup1\n  mload\n  swap1\n  0x20\n  add\n  swap1\n  swap2\n  swap1\n  pop\n  pop\n    /* \"contracts/3WETH9.sol\":315:327  _delegateAdr */\n  dup1\n    /* \"contracts/3WETH9.sol\":304:312  delegate */\n  0x0\n  dup1\n    /* \"contracts/3WETH9.sol\":304:327  delegate = _delegateAdr */\n  0x100\n  exp\n  dup2\n  sload\n  dup2\n  0xffffffffffffffffffffffffffffffffffffffff\n  mul\n  not\n  and\n  swap1\n  dup4\n  0xffffffffffffffffffffffffffffffffffffffff\n  and\n  mul\n  or\n  swap1\n  sstore\n  pop\n    /* \"contracts/3WETH9.sol\":250:334  function Proxy(address _delegateAdr) public {... */\n  pop\n    /* \"contracts/3WETH9.sol\":63:710  contract Proxy {... */\n  dataSize(sub_0)\n  dup1\n  dataOffset(sub_0)\n  0x0\n  codecopy\n  0x0\n  return\nstop\n\nsub_0: assembly {\n        /* \"contracts/3WETH9.sol\":63:710  contract Proxy {... */\n      mstore(0x40, 0x60)\n      jumpi(tag_1, lt(calldatasize, 0x4))\n      calldataload(0x0)\n      0x100000000000000000000000000000000000000000000000000000000\n      swap1\n      div\n      0xffffffff\n      and\n      dup1\n      0x3aeaccf5\n      eq\n      tag_2\n      jumpi\n      dup1\n      0xc89e4361\n      eq\n      tag_3\n      jumpi\n    tag_1:\n        /* \"contracts/3WETH9.sol\":423:424  0 */\n      0x0\n        /* \"contracts/3WETH9.sol\":417:425  sload(0) */\n      sload\n        /* \"contracts/3WETH9.sol\":461:473  calldatasize */\n      calldatasize\n        /* \"contracts/3WETH9.sol\":456:459  0x0 */\n      0x0\n        /* \"contracts/3WETH9.sol\":451:454  0x0 */\n      dup1\n        /* \"contracts/3WETH9.sol\":438:474  calldatacopy(0x0, 0x0, calldatasize) */\n      calldatacopy\n        /* \"contracts/3WETH9.sol\":552:553  0 */\n      0x0\n        /* \"contracts/3WETH9.sol\":547:550  0x0 */\n      dup1\n        /* \"contracts/3WETH9.sol\":533:545  calldatasize */\n      calldatasize\n        /* \"contracts/3WETH9.sol\":528:531  0x0 */\n      0x0\n        /* \"contracts/3WETH9.sol\":519:526  _target */\n      dup5\n        /* \"contracts/3WETH9.sol\":514:517  gas */\n      gas\n        /* \"contracts/3WETH9.sol\":501:554  delegatecall(gas, _target, 0x0, calldatasize, 0x0, 0) */\n      delegatecall\n        /* \"contracts/3WETH9.sol\":592:606  returndatasize */\n      returndatasize\n        /* \"contracts/3WETH9.sol\":587:590  0x0 */\n      0x0\n        /* \"contracts/3WETH9.sol\":582:585  0x0 */\n      dup1\n        /* \"contracts/3WETH9.sol\":567:607  returndatacopy(0x0, 0x0, returndatasize) */\n      returndatacopy\n        /* \"contracts/3WETH9.sol\":627:633  result */\n      dup1\n        /* \"contracts/3WETH9.sol\":639:640  0 */\n      0x0\n        /* \"contracts/3WETH9.sol\":634:655  case 0 {revert(0, 0)} */\n      dup2\n      eq\n      tag_7\n      jumpi\n        /* \"contracts/3WETH9.sol\":676:690  returndatasize */\n      returndatasize\n        /* \"contracts/3WETH9.sol\":673:674  0 */\n      0x0\n        /* \"contracts/3WETH9.sol\":665:691  return (0, returndatasize) */\n      return\n        /* \"contracts/3WETH9.sol\":634:655  case 0 {revert(0, 0)} */\n    tag_7:\n        /* \"contracts/3WETH9.sol\":652:653  0 */\n      0x0\n        /* \"contracts/3WETH9.sol\":649:650  0 */\n      dup1\n        /* \"contracts/3WETH9.sol\":642:654  revert(0, 0) */\n      revert\n        /* \"contracts/3WETH9.sol\":220:243  uint public Address = 1 */\n    tag_2:\n      jumpi(tag_8, iszero(callvalue))\n      0x0\n      dup1\n      revert\n    tag_8:\n      tag_9\n      jump(tag_10)\n    tag_9:\n      mload(0x40)\n      dup1\n      dup3\n      dup2\n      mstore\n      0x20\n      add\n      swap2\n      pop\n      pop\n      mload(0x40)\n      dup1\n      swap2\n      sub\n      swap1\n      return\n        /* \"contracts/3WETH9.sol\":191:214  address public delegate */\n    tag_3:\n      jumpi(tag_11, iszero(callvalue))\n      0x0\n      dup1\n      revert\n    tag_11:\n      tag_12\n      jump(tag_13)\n    tag_12:\n      mload(0x40)\n      dup1\n      dup3\n      0xffffffffffffffffffffffffffffffffffffffff\n      and\n      0xffffffffffffffffffffffffffffffffffffffff\n      and\n      dup2\n      mstore\n      0x20\n      add\n      swap2\n      pop\n      pop\n      mload(0x40)\n      dup1\n      swap2\n      sub\n      swap1\n      return\n        /* \"contracts/3WETH9.sol\":220:243  uint public Address = 1 */\n    tag_10:\n      sload(0x1)\n      dup2\n      jump\t// out\n        /* \"contracts/3WETH9.sol\":191:214  address public delegate */\n    tag_13:\n      0x0\n      dup1\n      swap1\n      sload\n      swap1\n      0x100\n      exp\n      swap1\n      div\n      0xffffffffffffffffffffffffffffffffffffffff\n      and\n      dup2\n      jump\t// out\n\n    auxdata: 0xa165627a7a72305820db4afa5d374921d975656fcd7e8d0984243341e6c3f3603da09a55ed0c60978b0029\n}\n",
				"bytecode": {
					"linkReferences": {},
					"object": "606060405260018055341561001357600080fd5b6040516020806101c983398101604052808051906020019091905050806000806101000a81548173ffffffffffffffffffffffffffffffffffffffff021916908373ffffffffffffffffffffffffffffffffffffffff1602179055505061014a8061007f6000396000f30060606040526004361061004c576000357c0100000000000000000000000000000000000000000000000000000000900463ffffffff1680633aeaccf514610075578063c89e43611461009e575b6000543660008037600080366000845af43d6000803e8060008114610070573d6000f35b600080fd5b341561008057600080fd5b6100886100f3565b6040518082815260200191505060405180910390f35b34156100a957600080fd5b6100b16100f9565b604051808273ffffffffffffffffffffffffffffffffffffffff1673ffffffffffffffffffffffffffffffffffffffff16815260200191505060405180910390f35b60015481565b6000809054906101000a900473ffffffffffffffffffffffffffffffffffffffff16815600a165627a7a72305820db4afa5d374921d975656fcd7e8d0984243341e6c3f3603da09a55ed0c60978b0029",
					"opcodes": "PUSH1 0x60 PUSH1 0x40 MSTORE PUSH1 0x1 DUP1 SSTORE CALLVALUE ISZERO PUSH2 0x13 JUMPI PUSH1 0x0 DUP1 REVERT JUMPDEST PUSH1 0x40 MLOAD PUSH1 0x20 DUP1 PUSH2 0x1C9 DUP4 CODECOPY DUP2 ADD PUSH1 0x40 MSTORE DUP1 DUP1 MLOAD SWAP1 PUSH1 0x20 ADD SWAP1 SWAP2 SWAP1 POP POP DUP1 PUSH1 0x0 DUP1 PUSH2 0x100 EXP DUP2 SLOAD DUP2 PUSH20 0xFFFFFFFFFFFFFFFFFFFFFFFFFFFFFFFFFFFFFFFF MUL NOT AND SWAP1 DUP4 PUSH20 0xFFFFFFFFFFFFFFFFFFFFFFFFFFFFFFFFFFFFFFFF AND MUL OR SWAP1 SSTORE POP POP PUSH2 0x14A DUP1 PUSH2 0x7F PUSH1 0x0 CODECOPY PUSH1 0x0 RETURN STOP PUSH1 0x60 PUSH1 0x40 MSTORE PUSH1 0x4 CALLDATASIZE LT PUSH2 0x4C JUMPI PUSH1 0x0 CALLDATALOAD PUSH29 0x100000000000000000000000000000000000000000000000000000000 SWAP1 DIV PUSH4 0xFFFFFFFF AND DUP1 PUSH4 0x3AEACCF5 EQ PUSH2 0x75 JUMPI DUP1 PUSH4 0xC89E4361 EQ PUSH2 0x9E JUMPI JUMPDEST PUSH1 0x0 SLOAD CALLDATASIZE PUSH1 0x0 DUP1 CALLDATACOPY PUSH1 0x0 DUP1 CALLDATASIZE PUSH1 0x0 DUP5 GAS DELEGATECALL RETURNDATASIZE PUSH1 0x0 DUP1 RETURNDATACOPY DUP1 PUSH1 0x0 DUP2 EQ PUSH2 0x70 JUMPI RETURNDATASIZE PUSH1 0x0 RETURN JUMPDEST PUSH1 0x0 DUP1 REVERT JUMPDEST CALLVALUE ISZERO PUSH2 0x80 JUMPI PUSH1 0x0 DUP1 REVERT JUMPDEST PUSH2 0x88 PUSH2 0xF3 JUMP JUMPDEST PUSH1 0x40 MLOAD DUP1 DUP3 DUP2 MSTORE PUSH1 0x20 ADD SWAP2 POP POP PUSH1 0x40 MLOAD DUP1 SWAP2 SUB SWAP1 RETURN JUMPDEST CALLVALUE ISZERO PUSH2 0xA9 JUMPI PUSH1 0x0 DUP1 REVERT JUMPDEST PUSH2 0xB1 PUSH2 0xF9 JUMP JUMPDEST PUSH1 0x40 MLOAD DUP1 DUP3 PUSH20 0xFFFFFFFFFFFFFFFFFFFFFFFFFFFFFFFFFFFFFFFF AND PUSH20 0xFFFFFFFFFFFFFFFFFFFFFFFFFFFFFFFFFFFFFFFF AND DUP2 MSTORE PUSH1 0x20 ADD SWAP2 POP POP PUSH1 0x40 MLOAD DUP1 SWAP2 SUB SWAP1 RETURN JUMPDEST PUSH1 0x1 SLOAD DUP2 JUMP JUMPDEST PUSH1 0x0 DUP1 SWAP1 SLOAD SWAP1 PUSH2 0x100 EXP SWAP1 DIV PUSH20 0xFFFFFFFFFFFFFFFFFFFFFFFFFFFFFFFFFFFFFFFF AND DUP2 JUMP STOP LOG1 PUSH6 0x627A7A723058 KECCAK256 0xdb 0x4a STATICCALL 0x5d CALLDATACOPY 0x49 0x21 0xd9 PUSH22 0x656FCD7E8D0984243341E6C3F3603DA09A55ED0C6097 DUP12 STOP 0x29 "
				},
				"gasEstimates": {
					"creation": {
						"codeDepositCost": "66000",
						"executionCost": "40454",
						"totalCost": "106454"
					},
					"external": {
						"": "infinite",
						"Address()": "infinite",
						"delegate()": "infinite"
					}
				},
				"methodIdentifiers": {
					"Address()": "3aeaccf5",
					"delegate()": "c89e4361"
				}
			},
			"userdoc": {
				"methods": {}
			}
		}
	}
}