{
	"data": {
		"bytecode": {
			"linkReferences": {},
			"object": "60606040526001600055341561001457600080fd5b60c2806100226000396000f3006060604052600436106049576000357c0100000000000000000000000000000000000000000000000000000000900463ffffffff1680632e52d60614604e578063eba86558146074575b600080fd5b3415605857600080fd5b605e6086565b6040518082815260200191505060405180910390f35b3415607e57600080fd5b6084608c565b005b60005481565b60056000819055505600a165627a7a72305820673da34d7885ccd319c5c7313b993dde5c58935bdc1cbc6391548dbf1601a01c0029",
			"opcodes": "PUSH1 0x60 PUSH1 0x40 MSTORE PUSH1 0x1 PUSH1 0x0 SSTORE CALLVALUE ISZERO PUSH2 0x14 JUMPI PUSH1 0x0 DUP1 REVERT JUMPDEST PUSH1 0xC2 DUP1 PUSH2 0x22 PUSH1 0x0 CODECOPY PUSH1 0x0 RETURN STOP PUSH1 0x60 PUSH1 0x40 MSTORE PUSH1 0x4 CALLDATASIZE LT PUSH1 0x49 JUMPI PUSH1 0x0 CALLDATALOAD PUSH29 0x100000000000000000000000000000000000000000000000000000000 SWAP1 DIV PUSH4 0xFFFFFFFF AND DUP1 PUSH4 0x2E52D606 EQ PUSH1 0x4E JUMPI DUP1 PUSH4 0xEBA86558 EQ PUSH1 0x74 JUMPI JUMPDEST PUSH1 0x0 DUP1 REVERT JUMPDEST CALLVALUE ISZERO PUSH1 0x58 JUMPI PUSH1 0x0 DUP1 REVERT JUMPDEST PUSH1 0x5E PUSH1 0x86 JUMP JUMPDEST PUSH1 0x40 MLOAD DUP1 DUP3 DUP2 MSTORE PUSH1 0x20 ADD SWAP2 POP POP PUSH1 0x40 MLOAD DUP1 SWAP2 SUB SWAP1 RETURN JUMPDEST CALLVALUE ISZERO PUSH1 0x7E JUMPI PUSH1 0x0 DUP1 REVERT JUMPDEST PUSH1 0x84 PUSH1 0x8C JUMP JUMPDEST STOP JUMPDEST PUSH1 0x0 SLOAD DUP2 JUMP JUMPDEST PUSH1 0x5 PUSH1 0x0 DUP2 SWAP1 SSTORE POP JUMP STOP LOG1 PUSH6 0x627A7A723058 KECCAK256 PUSH8 0x3DA34D7885CCD319 0xc5 0xc7 BALANCE EXTCODESIZE SWAP10 RETURNDATASIZE 0xde 0x5c PC SWAP4 JUMPDEST 0xdc SHR 0xbc PUSH4 0x91548DBF AND ADD LOG0 SHR STOP 0x29 "
		},
		"gasEstimates": {
			"creation": {
				"codeDepositCost": "38800",
				"executionCost": "20094",
				"totalCost": "58894"
			},
			"external": {
				"adds()": "20164",
				"n()": "386"
			}
		},
		"methodIdentifiers": {
			"adds()": "eba86558",
			"n()": "2e52d606"
		}
	},
	"abi": [
		{
			"constant": true,
			"inputs": [],
			"name": "n",
			"outputs": [
				{
					"name": "",
					"type": "uint256"
				}
			],
			"payable": false,
			"stateMutability": "view",
			"type": "function"
		},
		{
			"constant": false,
			"inputs": [],
			"name": "adds",
			"outputs": [],
			"payable": false,
			"stateMutability": "nonpayable",
			"type": "function"
		}
	]
}